:020000040800F2
:1000000088FA0020F10100089D240008DD010008A5
:10001000B5230008071200083F3C0008000000005C
:100020000000000000000000000000004501000882
:10003000A51400080000000089010008C938000864
:100040000B0200080B0200080B0200080B0200085C
:100050000B0200080B0200080B0200080B0200084C
:100060000B0200080B0200080B0200080B0200083C
:100070000B0200080B0200080B0200080B0200082C
:100080000B0200080B0200080B0200080B0200081C
:100090000B0200080B0200080B0200080B0200080C
:1000A0000B0200080B0200080B0200080B020008FC
:1000B0000B0200080B0200080B0200080B020008EC
:1000C0000B0200080B0200080B0200080B020008DC
:1000D0000B0200080B02000831390008153A00082D
:1000E0000B0200080B0200080B0200080B020008BC
:1000F0000B0200080B0200080B0200080B020008AC
:100100000B020008112900080B0200080B0200086E
:100110000B0200080B0200080B0200080B0200088B
:100120000B0200080B0200080B0200080B0200087B
:10013000DFF80CD000F040FE004800474DC2020836
:1001400088FA0020224B19680868B0E8F00F80F3A5
:100150000988BFF36F8F4FF0000080F311884EF0D5
:100160000D0E70470000000006480068006880F32C
:10017000088862B661B6BFF34F8FBFF36F8F00DFA1
:1001800000BF00BF08ED00E0EFF30980BFF36F8F01
:100190000F4B1A6820E9F00F106008B54FF0BF0050
:1001A00080F31188BFF34F8FBFF36F8F34F07AFF66
:1001B0004FF0000080F31188BDE808401968086816
:1001C000B0E8F00F80F30988BFF36F8F704700BF6E
:1001D000A4010020EFF30580704700001EF0040F1B
:1001E0000CBFEFF30880EFF3098016F0CDB90000E3
:1001F0000648804706480047FEE7FEE7FEE7FEE7C1
:10020000FEE7FEE7FEE7FEE7FEE7FEE7D13800087F
:10021000310100082DE9F05F0546002092469B461B
:1002200088460646814640241BE02846414647460C
:10023000224600F048FC53465A46C01A914110D35A
:1002400011461846224600F02FFC2D1A67EB0108D4
:100250004F4622460120002100F026FC17EB000942
:100260004E41201EA4F10104DFDC484631462A46F7
:100270004346BDE8F09F10B5431A934209D2831854
:10028000881803E010F8011D03F8011D521EF9D271
:1002900010BD40EA01039B0703D009E008C9121F03
:1002A00008C0042AFAD203E011F8013B00F8013B30
:1002B000521EF9D210BDD2B201E000F8012B491E46
:1002C000FBD270470022F6E710B513460A460446F3
:1002D0001946FFF7F0FF204610BD30B505462A4607
:1002E0000B4612F8010B13F8014B08B1A042F8D0ED
:1002F0001CB1002802D06D1CF1E7284630BD10B5B6
:10030000044604E00B7800F8013B03B1491C521E7F
:10031000F8D2204610BDCAB2401E10F8011F8A4212
:1003200002D00029F9D100207047421C10F8011BAF
:100330000029FBD1801A704710B5002200E0521C42
:10034000835C8C5CA34201D1002BF8D1D8B2E1B21E
:10035000401A10BD034611F8012B00F8012B002AAA
:10036000F9D11846704730B505460020034600E035
:100370005B1C934205D2EC5CC85C201A01D1002CB6
:10038000F6D130BD0246C9B200E0401C0378002B14
:10039000FBD102E003788B4203D0401E9042F9D299
:1003A000002070472DE9F04791460F4680460446ED
:1003B000002614F8015B2DB100F0A8FB0068405D39
:1003C000C007F6D12B2D02D02D2D18D0641E4A4621
:1003D0003946204600F0A7FB27B13968A14201D178
:1003E000C7F8008071054FF002040BD54042002889
:1003F00003DD04F047FC0460A007BDE8F08746F485
:100400008066E4E70028F8DA04F03CFC04606FF052
:100410000040F2E770B5064604F034FC0468054677
:100420000A2200213046FFF7BDFF2C6070BDF0B4FA
:1004300080EA0102D40F4200B2EB410F02D2024621
:10044000084611464A0042D0C30DDDB2C1F3C7527F
:10045000AD1A202D35DAC1F3160141F4000204B1C2
:100460005242C5F1200602FA06F12A411044B3EBCC
:10047000D05F23D0C4B1012DA0EBC35009DCF0BC88
:100480004FF0004202EAC352DBB200F5000000F078
:10049000F0BB400000F1807000EBC350A0F1807011
:1004A00040EAD170490009E0490841EAC071A0EB77
:1004B000C35000F50000400800EBC350F0BC00F052
:1004C000CFBB6142012202EB4101001BF6E7F0BC09
:1004D000704781F00041AAE780F00040A7E780EA7A
:1004E000010210B502F00043400022D04A001FD0A4
:1004F000010E01EB1261C0F35600C2F3560240F444
:10050000000042F40002A0FB022000047F39140422
:1005100000D0401C50EA124001D44000491EC2B233
:100520000C0604EBD010401C4008802A02D003E0E7
:10053000002010BD20F00100002900DA002018433F
:1005400010BD30B480EA010202F0004530F00042F4
:1005500021F0004013D090B1C30DD40DC2F31601A9
:10056000C0F31600E41A41F4000140F400027D34A7
:10057000914201D3641C00E04900002C02DA30BC37
:10058000002070474FF400000023914201D3891AE4
:10059000034340084FEA4101F7D151B1914202D1E2
:1005A0004FF0004105E002D24FF0010101E06FF091
:1005B000010103EBC450284430BC00F051BB2DE9CD
:1005C000FE4F804681EA0300C00F0C46009021F0E8
:1005D000004123F00045B8EB0200A94105D2404696
:1005E000214690461C460B46024623F0004010432D
:1005F00047D0270DC7F30A00C3F30A510290401AEF
:10060000019040286BDAC3F3130040F4801B00987C
:10061000924620B10023D2EB030A63EB0B0B019847
:100620005946C0F14002504600F03EFA06460D46DB
:1006300050465946019A00F056FA10EB0800614105
:10064000002487EA115284EAE7731A4340D0009AE3
:1006500062B3019A012A4FEA075215DC001B61EBD5
:1006600002014FF0004202EA0752CDE90042001CAD
:1006700041F5801132462B4600F038FB03B0BDE84F
:10068000F08F40462146F9E7001B61EB0201001C98
:1006900041F5801300185B412018A2F5001747EBC5
:1006A000030140EAD570B6196D4111E06D084FEABB
:1006B000360645EAC0754FEA0752001B61EB02019E
:1006C000001C41F5801149084FEA300000195141E2
:1006D00032462B4603B0BDE8F04F00F0F8BA009860
:1006E000012240000023D0EB020263EBE07300988C
:1006F00021464FEAE074B8EB000061EB0401E9E742
:1007000083F000435BE781F0004158E72DE9FE4F9D
:1007100081EA030404F0004421F0004100944FF00A
:10072000000B23F0004350EA01045ED052EA0304B8
:100730005BD0C3F30A54C1F30A552C44A4F2F3343A
:100740000194A0FB0254C1F3130141F48011C3F3DF
:10075000130343F4801301FB024400FB034E840A9D
:10076000970A44EA815447EA8357A4FB0768029535
:100770008D0A05FB07854FEA932C04FB0C542705D3
:10078000029D4FEA065847EA1637B5EB08056EEBAF
:10079000070C870E920E47EA811742EA8312A7FBE5
:1007A0000201B6EB0B0164EB00042B0D43EA0C33A2
:1007B0005E1844EB1C50DA465146E7FB0201C5F3D4
:1007C00013044FEA0B3343EA14534FEA0432019CFB
:1007D00043EA0603A4F10C040294009CCDE900B4A2
:1007E00000F084FA03B0BDE8F08F00200146F9E77D
:1007F0002DE9F04D81EA030404F0004B21F000459F
:1008000014464FF0000A23F0004150EA050220D0C0
:1008100054EA01021DD0C5F30A570246C5F313037B
:10082000C1F31300C1F30A5640F4801543F480135A
:10083000A7EB0608101BD64608F2FD3873EB05003F
:1008400002D308F1010801E092185B41B8F1000FF2
:1008500003DA00200146BDE8F08D00204FF480113E
:10086000064684460EE0171B73EB050705D3121BE3
:1008700063EB050306434CEA010C49084FEA3000DC
:1008800092185B4150EA0107EDD152EA030012D001
:1008900082EA040083EA0501084305D0101BAB413E
:1008A00006D20122002306E000224FF0004302E0BE
:1008B0006FF0010253101AEB06004CEB085110EBDD
:1008C0000A0041EB0B01BDE8F04D00F000BAC10F8A
:1008D00080EAE0700844CA079623002100F0C9B9F5
:1008E0000EB5C10F80EAE0700844CA07002140F24B
:1008F00033438DE80E000A460B4600F0F7F903B0CB
:1009000000BD0EB540F2334102910021CDE9001146
:100910000A460B4600F0EAF903B000BD00F00042C1
:1009200020F00040C10DC0F3160040F400007F2904
:1009300001DA00207047962903DCC1F19601C84016
:1009400001E096398840002AF4D04042704770B5E3
:10095000C1F30A5201F000450024C1F3130140F233
:10096000FF3341F480119A4201DA002070BD40F259
:1009700033439A42A2F2334203DC524200F0A3F81E
:1009800000E090402C43F1D0404270BDC1F30A52C8
:1009900010B5C1F3130140F2FF3341F480119A42C4
:1009A00001DA002010BD40F233439A42A2F23342F2
:1009B00003DC524200F087F810BD904010BD00F0FB
:1009C000004230F000400AD0C10D01F56071C0F363
:1009D000160042EA0151C208400711437047002047
:1009E0000146704730B5041E71F1000404DB4FF07E
:1009F0000044404264EB0101141E73F1000405DB66
:100A00001C464FF00043524263EB04038B4208BF85
:100A1000824230BD30B5041E71F1000404DB4FF09A
:100A20000044404264EB0101141E73F1000405DB35
:100A30001C464FF00043524263EB0403994208BF47
:100A4000904230BD01F0004330B421F0004150EA43
:100A5000010206D00A0DA2F56072C1F31301002A4B
:100A600002DC30BC00207047440F44EAC104C100DE
:100A7000E01830BC00EBC25000F0F2B830B50B46C5
:100A8000014600202022012409E021FA02F59D42BE
:100A900005D303FA02F5491B04FA02F52844151E92
:100AA000A2F10102F1DC30BD202A04DB203A00FA79
:100AB00002F1002070479140C2F1200320FA03F3B5
:100AC000194390407047202A04DB203A21FA02F0B3
:100AD0000021704721FA02F3D040C2F12002914078
:100AE000084319467047202A06DBCB17203A41FA03
:100AF00002F043EAE07306E041FA02F3D040C2F1AB
:100B00002002914008431946704700000048704792
:100B10006C86060810B50446FFF7F8FF0068005D14
:100B200000F0010010BD2DE9F05F8246007800273B
:100B300015468B460AF10104B946302801D09DB113
:100B400013E014F8010B0127782803D0582801D0AE
:100B500045B10AE00DB1102D07D10027102514F87A
:100B6000010B02E0082500E00A250026B0460EE051
:100B700005FB080005FB06F1012701EB10461FFAF3
:100B800080F8B6F5803F00D3B94614F8010B29462A
:100B900000F024F90028EBDABBF1000F05D00FB10B
:100BA000641E00E05446CBF80040B9F1000F06D0B7
:100BB00004F068F802210160C81EBDE8F09F48EA11
:100BC0000640FAE70FB4002300B589B00CA90091E4
:100BD0000B996FF00042CB601E4B06931E4B0793A0
:100BE0000423CDE901321D4A089202466B460020DB
:100BF00000F096F909B05DF814FB70B586B00646B2
:100C00004FF0FF300091CDE90101002015460C4660
:100C100004903246694604A8FFF7D4FF02460498C0
:100C2000211825B108B1084600E020462860049844
:100C300000280DD0002A02DD0098884208D0081B49
:100C40000094CDE901043246694604A8FFF7BAFFD3
:100C500006B070BD5911000877110008150B000887
:100C60000029A8BF7047401C490008BF20F00100C0
:100C7000704710B4B0FA80FC00FA0CF050EA01049E
:100C800004BF10BC704749B1CCF1200421FA04F430
:100C900011FA0CF118BF012121430843A3EB0C0109
:100CA000CB1D4FEA00614FEA102042BF002010BC6C
:100CB000704700EBC35010440029A4BF10BC70471C
:100CC000401C490008BF20F0010010BC704710B55F
:100CD000141E73F1000408DA401C41F1000192185F
:100CE0005B411A4301D120F0010010BD2DE9F04D08
:100CF00092469B4611B1B1FA81F202E0B0FA80F25D
:100D000020329046FFF7D0FE04460F4640EA0A0024
:100D100041EA0B0153465A46084313D0114653EAA1
:100D2000010019D0C8F140025046FFF7CCFE05463D
:100D30000E46504659464246FFF7B6FE084305D0D8
:100D4000012004E020463946BDE8F08D002005432F
:100D500046EAE0762C4337430A986305E40AA0EBA1
:100D600008000022FD0A44EA47540A3002D5002058
:100D70000146E9E7010510196941DDE90845001957
:100D80006941BDE8F04DA2E7C1F30A52C1F3130176
:100D900040F2FF3341F480119A4202DA002001460A
:100DA000704740F233439A42A2F2334202DC52428D
:100DB000FFF789BEFFF778BE064C074D06E0E068F6
:100DC00040F0010394E8070098471034AC42F6D392
:100DD000FFF7B2F9D0870608F08706083A2800D254
:100DE000303820F02002412A01D3A2F13700884296
:100DF00001D34FF0FF3070472DE9FF4F087883B0E3
:100E00009946FF2805D0491C2D2804D00024002035
:100E100008E000200BE00124F9E700EB800003EB81
:100E20004000491C0B78FF2BF7D104B1404200234E
:100E30000293147819461D462D2C01D02B2C04D179
:100E4000521C2D2C13D000240294AA461478FF2C97
:100E50000FD00A25A3FB057801FB05814FF0000C9C
:100E600003FB0C11521CE3194AEB0101EEE70124CC
:100E7000EAE7814453EA010002D019F5C87F06DA97
:100E800003980021C0E9001107B0BDE8F08F0025EC
:100E9000AE4E2F46DFF8B882184600F07DF9CDE956
:100EA0000001B9F1000002DAC9F1000400E00446D3
:100EB0000023A74A1AEB030B42EB045A12E0E007A7
:100EC00007D02A46334638464146FFF71FFC0746FF
:100ED00088462A46334610461946FFF717FC054652
:100EE0000E466410002CEAD1DDE90001B9F1000FD3
:100EF0005A46534606DAFFF77BFC3A464346FFF76D
:100F000077FC05E0FFF702FC3A464346FFF7FEFB9D
:100F1000029A0AB181F00041039AC2E90001B3E7E5
:100F20002DE9FF4F1F468DB0D7E901464FF0FF383E
:100F30002E2045464FF000090B90B9696D1C0E98A4
:100F40008847396A824688470028F6D1BAF1FF3FC0
:100F50000AD024F4D064002E11DDBAF12B0F08D092
:100F6000BAF12D0F0BD102E0404611B08DE744F4E9
:100F70008064B9696D1C0E9888478246761E694662
:100F8000600501D52D2000E02B208DF8000001F137
:100F9000010B0DF1200809E0B9696D1C0E98884716
:100FA00082460F9844F40074761E0560002E02DD20
:100FB000BAF1300FF0D00B998A453ED144F080044D
:100FC00006E00F99681CA9F1010944F40074086057
:100FD000B9696D1C761E0E98884782463028F0D07D
:100FE0002BE00B998A4505D1200603D444F08004F8
:100FF000761E18E0504604F0E0FA08B30DF1130134
:10100000761E44F400748B4508D2AAF130000BF828
:10101000010B200607D5A9F1010003E0200602D448
:1010200009F101008146A00502D50F99681C0860EE
:10103000B9696D1C0E9888478246002ED1DC53E0BA
:10104000002E51DDBAF1650F02D0BAF1450F4BD138
:10105000A00549D5B9696D1C24F44074761E0E981C
:1010600088478246002E0CDD2B2804D0BAF12D0FC4
:1010700007D144F48074B9696D1C0E988847824684
:10108000761EE00501D52D2100E02B2108F8011B7B
:10109000CDF82C8021E00DF12901761E44F4007476
:1010A00088450CD2AAF1300010F0FF0088F800004B
:1010B00002D10B99884509D908F1010806E0E0053D
:1010C00001D5244801E042F20F708146B9696D1CD8
:1010D0000E98884782460F980560002E04DD504622
:1010E00004F06BFA0028D6D1F9690E988847FF20E2
:1010F0008BF8000088F800000020069007904B460F
:101100006A4608A906A8FFF777FEA00502D46FF08B
:1011100001002AE714F0240F0AD0E00714D1DDE91A
:1011200006123868031D3B600068C0E900120BE03E
:10113000DDE90601FFF786FC0146E00704D13868C7
:10114000021D3A600068016028460EE70000144066
:101150000000F03FF1D8FFFF426842B1016811F88A
:10116000013B23B1521EC0E900121846704701210D
:10117000C160881E704742685AB1C368016843B9AC
:1011800083688B4205D0491E521CC0E90012002022
:1011900070474FF0FF3070470EB540F23342029275
:1011A0000022CDE900221346FFF7A0FD03B000BDE9
:1011B00070B58C1810F8015B15F0070301D110F819
:1011C000013B2A1106D110F8012B03E010F8016B46
:1011D00001F8016B5B1EF9D12B0705D40023521EC9
:1011E0000DD401F8013BFAE710F8013BCB1A921C31
:1011F00003E013F8015B01F8015B521EF9D5A1422F
:10120000D8D3002070BD00BFFEE770B500254FF4B5
:10121000803400E0641E24B1802001F059FB0028D6
:10122000F8D014B90325284670BD40F2FF5001F0F4
:1012300007FB2846F8E70000014600BF0748406B5F
:1012400000F045000028F9D040F2FF50034A9063B7
:101250001046406908221040C0B27047008001402B
:1012600070B500251048446B01E00F48446B04F052
:1012700045000028F9D004F0040028B1032504201B
:1012800001F0DEFA284670BD04F0010028B1012506
:10129000012001F0D5FA2846F5E740F2FF5001F0B1
:1012A000CFFA2846EFE700000080014070B5002526
:1012B0000B48446B01E00A48446B04F045000028E9
:1012C000F9D004F0040028B10325042001F0B8FA95
:1012D000284670BD40F2FF5001F0B2FA2846F8E708
:1012E000008001402DE9F04106460F464FF000080E
:1012F0002248456B01E02148456B05F04500002878
:10130000F9D005F0040038B14FF00308042001F0D3
:1013100097FA4046BDE8F08105F0010030B14FF08A
:101320000108012001F08CFA4046F3E701F0CAFA07
:10133000B04203D04FF010084046EBE740F2FF50B8
:1013400001F07EFA002001F0D7FA044604F4604070
:1013500018B9200C38804046DCE704F4005008B18E
:101360001320D7E704F4804008B11020D2E704F43A
:10137000004008B10F20CDE74046CBE70080014098
:1013800070B500264FF480350F48446B02E06D1EA7
:101390000D48446B04F0450008B9002DF7D115B194
:1013A00004F0040028B10326042001F049FA304675
:1013B00070BD04F0400028B10026402001F040FA42
:1013C0003046F5E73046F3E70080014000F08051F9
:1013D00011B10349086001E002494860704700000C
:1013E000040402400000024021B1026842F0010200
:1013F000026004E002684FF6FE731A400260704714
:1014000001460020002201F0805313B1054B1A68F9
:1014100001E0054B1A6802EA01030BB1012000E06C
:1014200000207047000402400000024010B5002276
:10143000026847F6F0739A430C6A8B6823430C6981
:1014400023434C6923438C692343CC6923434C6A6F
:1014500023438C6A23431A430260CB6843600B68C2
:1014600083604B68C36010BD0B48007800B17047C3
:101470000A48006840F08070084908600020084968
:1014800048600846006840F00100086001200249F9
:10149000087000BFEBE70000E2050020FCED00E073
:1014A000001000E07047000000B585B00121042065
:1014B00001F0BEF80121880301F0BAF84FF4007082
:1014C000ADF8100018208DF8130003208DF81200DD
:1014D00004A9134800F04EFA4FF48060ADF81000F4
:1014E00004208DF8130004A90D4800F043FA4FF4CE
:1014F000E13000900020ADF80400ADF80600ADF832
:101500000800ADF80C000C20ADF80A00694605484B
:1015100002F020FB0121034802F0B3FA05B000BD40
:10152000000801400038014070B5044612480078B8
:1015300018B9204600F022F81CE00F480078012876
:101540000AD14FF47A7060434FF47A71B0FBF1F531
:10155000284633F059FC0DE007480078022809D1ED
:101560004FF47A7060434FF47A71B0FBF1F528467E
:1015700033F04AFC70BD0000E105002010B50446C0
:1015800003E04FF47A7000F041F8201EA4F101044A
:10159000F7D110BD70B5044617480078A0B91748B8
:1015A000007808B9FFF760FF1548456815480068DE
:1015B0001549B0FBF1F000FB04F600BF104840688D
:1015C000401BB042FAD316E00B480078012812D134
:1015D000B4F57A7F0CD34FF47A70B4FBF0F04FF48B
:1015E0007A714843B0FBF1F5284633F00DFC02E078
:1015F000204600F013F870BDE1050020E205002050
:10160000001000E00000002040420F00C10000E098
:1016100000BF0A1EA1F10101FAD170472DE9F04186
:1016200005460E48007808B9FFF71EFF00BFEFF32C
:101630001080044672B60A4846680A4800680A499B
:10164000B0FBF1F000FB05F700BF05484068801BC8
:10165000B842FAD304B962B6BDE8F081E2050020D1
:10166000001000E00000002040420F0051B1820055
:10167000A2F1C042126842F001038200A2F1C0420E
:10168000136009E08200A2F1C0421268034B1A40C5
:101690008300A3F1C0431A6070470000FEFF0F00F3
:1016A000D0E901121143C268114302691143426932
:1016B000114382691143C2691143026A1143426AAC
:1016C0001143826A1143C26A1143026B11430268DB
:1016D0009200A2F1C0421160816808290BD1016813
:1016E0008900A1F1C041096841F040020168890008
:1016F000A1F1C0410A60416B0968426B526841EA3E
:101700000211426B926841EA0221426B928941EADE
:101710000241426B128A41EA0251426B127D41EA58
:101720000261426B926911430268521C9200A2F15D
:10173000C0421160C16AB1F5804F1BD1816B09684D
:10174000826B526841EA0211826B926841EA02217F
:10175000826B128A41EA0251826B127D41EA026178
:10176000826B9269114302689200A2F1C042C2F8F2
:10177000041107E06FF0704201688900A1F1C041D7
:10178000C1F80421704700002DE9FC4107460D46D1
:101790000026002400200090019008205D49086088
:1017A00010204860402088600020C8604FF48060AE
:1017B0000861084601F0DEF81020FFF73DFD044601
:1017C00014B12046BDE8FC8153480088000451490B
:1017D000086037204860402088600020C8604FF4CF
:1017E00080600861084601F0C5F83720FFF724FD46
:1017F00004460CB12046E5E74FF0FF30474908604A
:1018000008204860302088600220C86000200861FD
:1018100001204861084601F02BF800203D4908608E
:1018200033204860402088600020C8604FF480600A
:101830000861084601F09EF83320FFF7FDFC0446DE
:101840000CB12046BEE70CE04FF4001001F040F868
:1018500038B101F089F84DF82600761C012E00D928
:1018600006E02F48406B40F22A6108400028EBD088
:1018700000BF082001F02CF828B1082000F0E0FF9C
:10188000042420469EE7022001F022F828B102201D
:1018900000F0D6FF0224204694E7202001F018F83B
:1018A00028B1202000F0CCFF062420468AE74FF420
:1018B000007001F00DF830B14FF4007000F0C0FF7F
:1018C000072420467EE740F2FF5000F0B9FF009861
:1018D0000006009901F47F4140EA0120009901F4DB
:1018E0007F0140EA1120009940EA11606860019888
:1018F0000006019901F47F4140EA0120019901F4B9
:101900007F0140EA1120019940EA116028602046D9
:1019100058E7000000BD00202002002014BD002078
:101920000080014008B50121302000F081FE4FF415
:10193000F850ADF8000003208DF8020018208DF853
:1019400003006946094800F015F80420ADF80000CE
:101950006946074800F00EF80121880200F048FEB1
:101960000121022000F044FE08BD000000100140EB
:10197000001401402DE9F041024600250026002018
:1019800000230024002791F803C00CF00F0591F804
:1019900003C00CF0100CBCF1000F03D091F802C092
:1019A0004CEA050591F800C0BCF1000F31D0146875
:1019B00000202BE04FF0010C0CFA00F3B1F800C04E
:1019C0000CEA03069E4220D183004FF00F0C0CFA64
:1019D00003F7BC4305FA03FC4CEA040491F803C086
:1019E000BCF1280F06D14FF0010C0CFA00FCC2F834
:1019F00014C00AE091F803C0BCF1480F05D14FF0C4
:101A0000010C0CFA00FCC2F810C0401C0828D1D30D
:101A10001460B1F800C0BCF1FF0F34DD5468002041
:101A20002EE000F1080C4FF0010808FA0CF3B1F8B1
:101A300000C00CEA03069E4221D183004FF00F0C38
:101A40000CFA03F7BC4305FA03FC4CEA040491F8D2
:101A500003C0BCF1280F05D100F1080C08FA0CF8FE
:101A6000C2F8148091F803C0BCF1480F07D100F10F
:101A7000080C4FF0010808FA0CF8C2F81080401C5E
:101A80000828CED35460BDE8F08102460020936858
:101A90000B400BB1012000E000207047416170470E
:101AA0000161704710B504462CB14FF480510548D0
:101AB000FFF7F4FF04E04FF480510248FFF7F0FF16
:101AC00010BD00000014014001B502E00098401E66
:101AD000009000980028F9D108BD00B597B03C21CE
:101AE00008A8FEF7EFFB1C2101A8FEF7EBFB012184
:101AF000080200F07DFD022001900F2003904FF0BE
:101B00008050079000200290049005900690089065
:101B1000099008200A9010200B9000200C900E9045
:101B20000F9010904FF4805011900020129013905D
:101B3000149001A81590169008A8FFF7B1FD012197
:101B40000020FFF793FD17B000BD000008B501218C
:101B5000602000F06DFD03208DF8020018208DF844
:101B600003004FF48040ADF8000069465B48FFF782
:101B700001FF4FF40040ADF8000069465748FFF7F9
:101B8000F9FE0120ADF8000069465448FFF7F2FE67
:101B90000220ADF8000069465048FFF7EBFE8020B8
:101BA000ADF8000069464E48FFF7E4FE4FF4807040
:101BB000ADF8000069464A48FFF7DCFE4FF40070BC
:101BC000ADF8000069464648FFF7D4FE4FF4806048
:101BD000ADF8000069464248FFF7CCFE4FF40060C4
:101BE000ADF8000069463E48FFF7C4FE4FF4805050
:101BF000ADF8000069463A48FFF7BCFE4FF40050CC
:101C0000ADF8000069463648FFF7B4FE4FF4804057
:101C1000ADF8000069463248FFF7ACFE4FF40040D3
:101C2000ADF8000069462E48FFF7A4FE4FF480701F
:101C3000ADF8000069462948FFF79CFE4FF400709C
:101C4000ADF8000069462548FFF794FE4FF4806028
:101C5000ADF8000069462148FFF78CFE03208DF89F
:101C6000020018208DF803001020ADF8000069462E
:101C70001A48FFF77FFE2020ADF80000694617489C
:101C8000FFF778FE8020ADF8000069461348FFF7A3
:101C900071FE4FF40060ADF8000069460F48FFF791
:101CA00069FE10208DF8030003208DF80200022049
:101CB000ADF8000069460A48FFF75CFE10208DF879
:101CC000030003208DF802004FF48050ADF80000AF
:101CD00069460248FFF74EFE08BD000000140140AF
:101CE0000018014010B50446072C00DD10BD314836
:101CF0000470204604EBD0714910A4EB410139B9BE
:101D0000F0202D4908804FF4A0702C49088006E08F
:101D10004FF4A07028490880F02028490880362018
:101D200000F00EFB2648008849F24131884205D177
:101D3000082141EA441000F007FB0AE0204800882F
:101D400048F25251884204D1002141EA441000F087
:101D5000FBFA2A2000F0F4FA002000F0F5FA002047
:101D600000F0F2FA14490988491EC1F3072000F077
:101D7000EBFA11490978491EC8B200F0E5FA2B20A8
:101D800000F0DEFA002000F0DFFA002000F0DCFABC
:101D90000A490988491EC1F3072000F0D5FA07490E
:101DA0000978491EC8B200F0CFFA2C2000F0C8FA1A
:101DB00000BF9BE7EC040020E8040020EA040020B8
:101DC000EE04002010B5FFF7C1FEFFF786FE0120EC
:101DD000FFF768FE00F0A0FA00F038F8024800783B
:101DE000FFF780FF10BD0000EC0400202DE9F0415A
:101DF00004460D4616461F462A2000F0A1FA20127E
:101E000000F0A2FAE0B200F09FFAA119491EC1F356
:101E10000F2000F099FAA119491EC8B200F094FAF7
:101E20002B2000F08DFA281200F08EFAE8B200F0B4
:101E30008BFAE919491EC1F30F2000F085FAE91960
:101E4000491EC8B200F080FABDE8F08110B500F07C
:101E500025FAFE4908800846008849F24131884247
:101E60007ED1CF2000F06CFA002000F06DFA8120C6
:101E700000F06AFA302000F067FAED2000F060FA16
:101E8000642000F061FA032000F05EFA122000F0F6
:101E90005BFA812000F058FAE82000F051FA852022
:101EA00000F052FA102000F04FFA782000F04CFABF
:101EB000CB2000F045FA392000F046FA2C2000F043
:101EC00043FA002000F040FA342000F03DFA0620EA
:101ED00000F03AFAF72000F033FA202000F034FA4C
:101EE000EA2000F02DFA002000F02EFA002000F089
:101EF0002BFAB12000F024FA002000F025FA1B2074
:101F000000F022FAB62000F01BFA0A2000F01CFABA
:101F1000A22000F019FAC02000F012FA352000F0DB
:101F200013FAC12000F00CFA112000F00DFAC520C0
:101F300000F006FA452000F007FA452000F004FA08
:101F4000C72000F0FDF9A22000F0FEF9F22000F019
:101F5000F7F9002000F0F8F9262000F0F1F900E090
:101F600096E0012000F0F0F9E02000F0E9F90F2000
:101F700000F0EAF9262000F0E7F9242000F0E4F967
:101F80000B2000F0E1F90E2000F0DEF9092000F04E
:101F9000DBF9542000F0D8F9A82000F0D5F946204C
:101FA00000F0D2F90C2000F0CFF9172000F0CCF9A6
:101FB000092000F0C9F90F2000F0C6F9072000F051
:101FC000C3F9002000F0C0F9E12000F0B9F90020C9
:101FD00000F0BAF9192000F0B7F91B2000F0B4F9AD
:101FE000042000F0B1F9102000F0AEF9072000F055
:101FF000ABF92A2000F0A8F9472000F0A5F9392014
:1020000000F0A2F9032000F09FF9062000F09CF9EF
:10201000062000F099F9302000F096F9382000F001
:1020200093F90F2000F090F9362000F089F9C820CC
:1020300000F08AF92A2000F083F9002000F084F9EA
:10204000002000F081F9002000F07EF9EF2000F080
:102050007BF92B2000F074F9002000F075F90020C6
:1020600000F072F9012000F06FF93F2000F06CF9E8
:102070003A2000F065F9552000F066F9112000F0D3
:102080005FF97348FFF720FD292000F059F901E1BD
:102090006E48008848F252518842F8D1CF2000F0B3
:1020A0004FF9002000F050F9C12000F04DF9302028
:1020B00000F04AF9ED2000F043F9642000F044F903
:1020C000032000F041F9122000F03EF9812000F0D9
:1020D0003BF9E82000F034F9852000F035F91020B4
:1020E00000F032F9782000F02FF9CB2000F028F929
:1020F000392000F029F92C2000F026F9002000F00A
:1021000023F9342000F020F9022000F01DF9F72017
:1021100000F016F9202000F017F9EA2000F010F97D
:10212000002000F011F9002000F00EF9C02000F0AE
:1021300007F9212000F008F9C12000F001F9112071
:1021400000F002F9C52000F0FBF82D2000F0FCF8AB
:10215000332000F0F9F8362000F0F2F8002000F00B
:10216000F3F83A2000F0ECF8552000F0EDF8B1203B
:1021700000F0E6F8002000F0E7F8172000F0E4F89F
:10218000B62000F0DDF80A2000F0DEF8A22000F012
:10219000DBF8F62000F0D4F8012000F0D5F830206C
:1021A00000F0D2F8F22000F0CBF8002000F0CCF8DC
:1021B000262000F0C5F8012000F0C6F8E02000F06D
:1021C000BFF8D02000F0C0F8002000F0BDF80220D9
:1021D00000F0BAF8072000F0B7F80B2000F0B4F8D0
:1021E0001A2000F0B1F8312000F0AEF8542000F0D1
:1021F000ABF8402000F0A8F8292000F0A5F8122044
:1022000000F0A2F8122000F09FF8122000F09CF8D5
:10221000172000F099F8E12000F092F8D02000F0AB
:1022200093F8002000F090F8022000F08DF80720CD
:1022300000F08AF8052000F087F8252000F084F8E7
:102240002D2000F081F8442004E00000EE0400207E
:10225000FCBF020000F078F8452000F075F81C2063
:1022600000F072F8182000F06FF8162000F06CF8FB
:102270001C2000F069F81D2000F066F8112000F025
:102280005FF80548FFF720FC292000F059F82C20C2
:1022900000F056F810BD0000FCBF020010B500248D
:1022A000042000F04DF800BF1748008800BF164812
:1022B000008800F02BF804464FF6FF7000EA042473
:1022C00000F024F8044348F25250844201D12046E1
:1022D00010BDD32000F034F800BF0B48008800BFC9
:1022E0000948008800F012F804464FF6FF7000EA33
:1022F000042400F00BF8044349F24130844201D138
:102300002046E5E70020E3E700000260014800887E
:10231000704700000000026010B502210748FFF777
:10232000BDFB40F6FF20FFF7CFFB02210348FFF77C
:10233000B7FB40F6FF20FFF7C7FB10BD00180140B8
:102340004FF0C04108807047014908807047000085
:102350000000026008B50121082000F069F9202082
:10236000ADF8000010208DF8030003208DF8020066
:1023700069460F48FFF7FEFA0120ADF800006946F4
:102380000B48FFF7F7FA0220ADF80000694608484D
:10239000FFF7F0FA20210648FFF782FB01210448ED
:1023A000FFF77EFB02210248FFF77AFB08BD000021
:1023B000000C014000BFFEE770B50848046805E066
:1023C000A569204620F0F6FD2C4600BF002CF7D171
:1023D0000020024908600249086070BD40020020E8
:1023E000440200202DE9F04101F07AF90023184A57
:1023F00018A119A02AF010FB04460023174A18A1BF
:1024000018A02AF009FB05460023184A18A119A0B4
:102410002AF002FB06460023184A19A119A02AF047
:10242000FBFA07460023184A18A119A02AF0F4FA6B
:102430008046A561AE61B761C7F818800020C8F872
:1024400018001548046020462AF00EFBBDE8F08114
:1024500019CE0208EF84A40067707300BDD3020890
:10246000EF8081006D7573696300000079E20208F6
:10247000EF87AB007765617468657200E1DC020884
:10248000EF9F82007364000081DA0208EF809300FE
:102490007265636F7264000040020020704708B5E7
:1024A0004FF4C06000F048F831208DF800000020A3
:1024B0008DF801008DF8020001208DF803006846B8
:1024C00000F002F808BD000070B5002100230F22C3
:1024D000C47804B3154C246804F4E064C4F5E064E3
:1024E000210AC1F10403CA40447804FA03F1847854
:1024F0001440214309010E4C0678A155047804F0DC
:102500001F050124AC4005786D11AD0005F1E025F3
:10251000C5F8004109E0047804F01F050124AC402F
:10252000044D0678761145F8264070BD0CED00E0AC
:1025300000E400E080E100E002490143024A11604A
:10254000704700000000FA050CED00E070B506468B
:102550000D4606B115B94FF0FF3070BD14A13046DD
:10256000FDF7BBFE04463CB104F10F00FDF752FF3E
:1025700040B285F8200005E011A002F05BFB4FF0AF
:10258000FF30EAE715A13046FDF7A7FE04463CB14F
:10259000102205F1100104F108002AF079F905E094
:1025A0000F2211A105F11000FDF7A9FE0020D4E7CC
:1025B0002274656D7065726174757265223A2200CD
:1025C0003E3E2050617273653A206E6F2074656DD7
:1025D00070657261747572650D0A00002274657809
:1025E00074223A2200000000556E6B6E6F776E0009
:1025F00029B1064A52690243044B5A6104E0034A76
:1026000052698243014B5A6170470000001002403A
:1026100029B1064AD2690243044BDA6104E0034A55
:10262000D2698243014BDA6170470000001002401A
:1026300029B1064A92690243044B9A6104E0034AB5
:1026400092698243014B9A6170470000001002407A
:1026500030B500210022002400232D4D6D6805F0C7
:102660000C0121B1042905D0082923D105E0294D09
:10267000056022E0274D05601FE0254D6D6805F4DB
:102680007012234D6D6805F48034022505EB9242EB
:102690001CB9214D554305600BE01D4D6D6805F4D7
:1026A00000351DB11C4D5543056002E0194D5543E1
:1026B000056002E0174D056000BF00BF144D6D6856
:1026C00005F0F0010909154D6B5C0568DD404560BA
:1026D0000F4D6D6805F4E061090A104D6B5C4568AB
:1026E000DD4085600A4D6D6805F46051C90A0B4DE7
:1026F0006B5C4568DD40C560054D6D6805F4404183
:10270000890B074D6B5CC568B5FBF3F5056130BD02
:102710000010024000127A0000093D001400002061
:10272000240000207CB50546002400200090019084
:1027300000F0E2F800F0007010B10E2420467CBDDD
:102740003D49098888B26946FFF71EF804460CB176
:102750002046F4E7012D36D1019800F480200028AE
:102760002ED035480088000434490860372048607E
:10277000402088600020C860A8020861084600F078
:10278000F9F83720FEF758FD04460CB12046D6E78D
:1027900002202A4908600620486040208860002006
:1027A000C8604FF480600861084600F0E3F8062036
:1027B000FEF742FD04460CB12046C0E72046BEE7C6
:1027C00025242046BBE7019800F4803078B31A48EE
:1027D000008800041949086037204860402088605C
:1027E0000020C8604FF480600861084600F0C2F81D
:1027F0003720FEF721FD04460CB120469FE700205C
:102800000E49086006204860402088600020C860AB
:102810004FF480600861084600F0ACF80620FEF72F
:102820000BFD04460CB1204689E7204687E7FFE709
:102830002524204683E700002002002000BD002060
:1028400001498863704700000080014001498863A6
:102850007047000000800140014908607047000097
:10286000A000304201490860704700008C053042EA
:1028700000210A4B02685A6242689A621A46D16A7B
:1028800021F0F701D0E902231A4303691A4343698F
:102890001A431143014AD162704700000080014091
:1028A00000200649086048608860C8604862886205
:1028B000C862034888630020C863704700800140F5
:1028C000FF07C00001480069C0B2704700800140A6
:1028D00001460020034A526B0A400AB1012000E081
:1028E00000207047008001400248006800F00300AB
:1028F000704700000080014008B5014600200090AC
:102900000248084400900098006808BD1480014007
:1029100010B500F047FC10BD29B1064AD26B024346
:10292000044BDA6304E0034AD26B8243014BDA635F
:10293000704700000080014000210A4A516847F6B4
:10294000FF629143027D83681A4343681A43C36858
:102950001A4303681A4303691A431143014A516039
:102960007047000000800140014800687047000087
:10297000808001400021094B02689A601A46D168A4
:102980006FF30A01D0E901231A43C3681A430369AC
:102990001A431143014AD160704700000080014092
:1029A0000549096821F00301034A116011460968CD
:1029B00001431160704700000080014010B50248DB
:1029C000FEF71EFD10BD00000020001030B58BB0DA
:1029D00005460C461348FEF7F9FC00211248FEF7A5
:1029E00003FD12480090019500200290A00803907A
:1029F00000200490802005908000069080000790C1
:102A0000002008904FF40050099000200A90694679
:102A10000548FEF70BFD01210348FEF7E5FC0BB06E
:102A200030BD000000F000104404024080800140EE
:102A300030B58BB005460C461348FEF7C7FC0021A5
:102A40001248FEF7D1FC1248009001951020029028
:102A5000A00803900020049080200590800006903C
:102A600080000790002008904FF40050099000204B
:102A70000A9069460548FEF7D9FC01210348FEF794
:102A8000B3FC0BB030BD000000F000104404024065
:102A90008080014070B50446002521480068032865
:102AA00002D12725284670BD1D48006838B11C4852
:102AB0000068012803D01A48006802282ED1B4F516
:102AC000805F02D127252846EDE7B4F5006F14D1C9
:102AD0000120FFF727FE054605BB012011490875B7
:102AE00000200860486088604FF40060C8600020E3
:102AF00008610846FFF720FF10E00020FFF712FEF4
:102B000005465DB901200749087500200860486046
:102B10008860C86008610846FFF70EFF2846C2E7D4
:102B20001C020020E8BC0020F0B501460020002275
:102B3000BC4B1B7881F85630BB4B1B88A1F8543036
:102B4000BA4B1B681A0E93090B70C2F383034B70C8
:102B500002F003038B70B54B1B68C3F30742CA70C6
:102B6000B24B1B88C3F307220A71B04B1A784A7123
:102B70005B681A0E1301CB80AC4B5B68C3F3074252
:102B8000CB8843EA1213CB8002F00F030B72A74BE2
:102B90009B88C3F30722D3094B72C2F380138B7255
:102BA000C2F34013CB72C2F300130B7300234B73B9
:102BB0009C4B1B681BB19B4B1B68012B4FD1930790
:102BC0001B0D0B61994B1A790B6943EA82030B6168
:102BD000964B9B681A0E0B6943EA92130B61C2F382
:102BE000C2030B7502F007034B75904B9B68C3F350
:102BF000074253098B75C2F38203CB7593075B0FB2
:102C00000B768A4B1B89C3F307220B7E43EAD21350
:102C10000B760B695B1C0024C1E912340B7ED1E9F1
:102C200012649B1C012505FA03F3DF17A6FB035C66
:102C300004FB03C306FB0733C1E912530C7A0123DB
:102C4000A3400B650027D1E912560B6DA5FB034C81
:102C500006FB03C305FB0733C1E912432DE0714BAB
:102C60001B68022B29D1714B1A7993069B0A0B61C1
:102C70006E4B9B681A0E0B6943EA02230B616B4B88
:102C80009B68C3F307420B6913430B61674B1B89B6
:102C9000C3F307220B695B1C4FF40074A3FB0434DD
:102CA0004FF480660025A3FB067C04FB06C403FBEF
:102CB0000543C1E9127373100B65C2F3801301F869
:102CC000193F93065B0E4B70584B1A7A4B7843EAC8
:102CD000D2134B7002F07F038B70544BDB681A0EDB
:102CE000D309CB70C2F341130B71C2F382034B7152
:102CF00093071B0F8B714D4BDB68C3F307428B7936
:102D000043EA92138B71C2F34013CB7100230B7211
:102D100002F001034B72454B9B89C3F30722D30991
:102D20008B72C2F38013CB72C2F340130B73C2F3E6
:102D300000134B73C2F381038B7302F00303CB7355
:102D40003A4B1A7B53080B7401234B74384B1B68A6
:102D50001A0ECA741939364B1B68C3F307421402A2
:102D6000CC85334B1B88C3F30722CB8D1343CB8514
:102D70002F4B1A7814060C635B681A0E0B6B43EA30
:102D800002440C632A4B5B68C3F307420B6B43EAB4
:102D900002240C63264B9B88C3F307220B6B13435F
:102DA0000B63234B1A7934235A54214B9B681A0E18
:102DB00035235A541E4B9B68C3F3074214068C6399
:102DC0001B4B1B89C3F307228B6B43EA02448C63C2
:102DD000174B1A7A8B6B43EA02248C63144BDB6823
:102DE0001A0E8B6B13438B63114BDB68C3F30742E3
:102DF0003C235B5C43EA12143C235C5413071C0D18
:102E0000CC870B4B9B89C3F30722CB8F1343CB8714
:102E1000074B1A7B540840235C54012441235C5423
:102E2000F0BD00001C0200202002002060BC002039
:102E300070BC002008B500200090684600F074FACD
:102E400008B1FF2008BD0098C0F34320FAE710B591
:102E50000424FFF7EFFF0446042C01D1002010BD2D
:102E6000FF2C01D10220FAE70120F8E710B5002479
:102E7000FFF715FBFEF756FDFFF712FD00F0CEF849
:102E800004460CB1204610BD00F02AF804460CB1EF
:102E90002046F8E7012010490875002008604860C6
:102EA0008860C86008610846FFF746FD1CB90B48FA
:102EB000FFF73AFE044634B90849B1F85410080443
:102EC00000F018FA044624B94FF40060FFF7E2FD61
:102ED00004462046D7E70000E8BC002090BC002054
:102EE00038B5002401200090FFF7FEFC10B925241E
:102EF000204638BD44480068042828D000204349B3
:102F0000086002204860C02088600020C8604FF43C
:102F1000806008610846FFF72DFDFEF7A1F9044621
:102F20000CB12046E5E70020FFF7E6FC38490860D1
:102F30000420FFF7E1FC364948600820FFF7DCFC7D
:102F4000334988600C20FFF7D7FC3149C8602E4810
:102F5000006858B12C480068012807D02A4800684A
:102F6000062803D028480068022816D100202749E7
:102F7000086003204860402088600020C8604FF44B
:102F8000806008610846FFF7F5FC69460320FEF7FC
:102F9000A9F904460CB12046ABE71B480068042899
:102FA0002ED0BDF800001B490860BDF800000004E9
:102FB0001649086009204860C02088600020C86069
:102FC0004FF4806008610846FFF7D4FCFEF748F92B
:102FD00004460CB120468CE70020FFF78DFC0E491B
:102FE00008600420FFF788FC0B4948600820FFF7C1
:102FF00083FC094988600C20FFF77EFC0649C86005
:103000000024204675E700001C02002000BD0020BF
:1030100070BC00202002002060BC00202DE9F0419F
:103020000024002600250027A046B2205949087533
:103030000020086048608860C86008610846FFF7A3
:103040007BFC0320FFF7ACFC0120FFF705FC002010
:103050005149086048608860C8604FF4806008612A
:103060000846FFF787FCFEF7D0F8044614B1204667
:10307000BDE8F0814FF4D5704749086008204860EA
:10308000402088600020C8604FF4806008610846D6
:10309000FFF770FCFEF774F904462CB901203F4994
:1030A00008604FF0804812E000203B49086037205C
:1030B0004860402088600020C8604FF4806008614C
:1030C0000846FFF757FC3720FEF7B6F80446002005
:1030D0003149086037204860402088600020C8607F
:1030E0004FF4806008610846FFF744FC3720FEF784
:1030F000A3F80446002C4AD136E000202649086097
:1031000037204860402088600020C8604FF480600D
:1031100008610846FFF72EFC3720FEF78DF80446BD
:103120000CB12046A4E71E4848EA00001A4908608E
:1031300029204860402088600020C8604FF48060EB
:1031400008610846FFF716FCFEF7B0F804460CB11C
:1031500020468DE70020FFF7CFFB0646012080EADE
:10316000D67080F001076D1C1FB94FF6FF708542C5
:10317000C3D34FF6FF70854202D31B24204677E766
:1031800006F08040061E02D0022004490860204656
:103190006EE70000E8BC002000BD00201C020020FB
:1031A0000000108010B51148006801280BD10020E4
:1031B0000F49886040F24C40C8600C20FEF73CF894
:1031C0000C49087002E000200A4908704FF4807032
:1031D000FFF73CFB00214FF48070FFF79DFB0120BF
:1031E000054908600348007810BD00002402002053
:1031F00000800140280200202C0200202DE9F04729
:10320000814614461D46DDE9086800270020324942
:1032100008703249086001203149086000203149B6
:10322000C86231480068022808D106020202002361
:1032300020462946FCF7EEFF04460D462B48066063
:1032400010202A494860402088600020C8604FF460
:10325000806008610846FFF78DFB1020FDF7ECFF4A
:10326000074617B13846BDE8F0874FF0FF302049D8
:10327000086008FB06F04860902088600220C86063
:1032800000200861012048610846FFF7F1FA17485D
:103290000460122015494860402088600020C86002
:1032A0004FF4806008610846FFF764FB1220FDF7C9
:1032B000C3FF07460FB13846D5E701210802FFF7E3
:1032C0002BFB0120FFF7CEFA08FB06F14846FFF77B
:1032D0007DFB3846C7E70000280200202C020020B2
:1032E00024020020008001401C02002000BD0020BC
:1032F00014BD002070B5044600250A48046007206C
:1033000008494860402088600020C8604FF4806011
:1033100008610846FFF72EFB0720FDF78DFF0546E5
:10332000284670BD00BD002070B5044600250A483F
:10333000008800040949886040F24D40C8600D20B3
:10334000FDF77AFF05460DB1284670BD0348406978
:1033500020602846F9E7000020020020008001409C
:1033600010B5002400BFFFF729FB30B907480068FB
:1033700018B9074800780028F5D00548007810B142
:103380000348007810BD2046FCE700002C02002016
:103390002802002010B5002400BFFFF70FFB30B952
:1033A0000948006818B9094800780028F5D007488E
:1033B000007810B10548007810BD40F2FF50FFF7CB
:1033C0003FFA2046F8E700002C02002028020020E7
:1033D0002DE9F843814615461E46DDE908780024AC
:1033E0000020009048490870484908600120484979
:1033F000086000204749C86247480068022808D191
:1034000007020202002328463146FCF703FF054667
:103410000E464248076010204049486040208860BE
:103420000020C8604FF4806008610846FFF7A2FAE8
:103430001020FDF701FF044614B12046BDE8F883D3
:10344000374800880004354908603720486040202C
:1034500088600020C8604FF4806008610846FFF76C
:1034600089FA3720FDF7E8FE04460CB12046E5E76F
:103470002A48C0F80080172028494860402088600A
:103480000020C8604FF4806008610846FFF772FAB8
:103490001720FDF7D1FE04460CB12046CEE71F48A9
:1034A000056019201D494860402088600020C860E0
:1034B0004FF4806008610846FFF75CFA1920FDF7B9
:1034C000BBFE04460CB12046B8E74FF0FF3015496B
:1034D000086008FB07F04860902088600020C86002
:1034E0000861012048610846FFF7C2F9012108027E
:1034F000FFF712FA0120FFF7B5F908FB07F148467C
:10350000FFF796FA204699E7280200202C020020B7
:1035100024020020008001401C02002000BD002089
:103520002002002014BD002010B5044600BF022177
:103530000A4800F021F80028F9D02146074800F099
:1035400027F800BF0121054800F016F80028F9D03F
:10355000024800F01AF8C0B210BD00000038004068
:1035600021B1028842F04002028004E002884FF656
:10357000BF731A40028070470246002013890B4037
:103580000BB1012000E00020704701468889704798
:103590008181704710B50022028802F441520B88E5
:1035A0004C8823438C882343CC8823430C892343B2
:1035B0004C8923438C892343CC8923431A430280BB
:1035C000838B4FF2FF74234083830B8A038210BDE9
:1035D00010B50446074800884FF6C77108400549F2
:1035E0000880084600882043088001210148FFF731
:1035F000B7FF10BD0038004010B500F001F810BD55
:103600000CB50020019000903348006840F48030F1
:103610003149086000BF3048006800F40030009075
:103620000198401C0190009818B90198B0F5A06F5E
:10363000F1D12948006800F4003010B10120009059
:1036400001E0002000900098012843D12348006841
:1036500040F01000214908600846006820F003008F
:1036600008600846006840F0020008601A48406898
:10367000194948600846406848600846406840F478
:10368000806048600846406820F47C104860084626
:10369000406840F4E81048600846006840F08070D8
:1036A000086000BF0C48006800F000700028F9D0E6
:1036B0000948406820F00300074948600846406810
:1036C00040F00200486000BF0348406800F00C0072
:1036D0000828F9D10CBD0000001002400020024073
:1036E000F8B56D480068A0B101216B48006820F072
:1036F000D6FC69480468204621F054FB0646304653
:1037000021F007FA451E2946204623F02BFE00BF74
:10371000F8BD00BF18F00AF8054618F047F804464F
:1037200020F080FD5C4908601922F0215A480068A9
:1037300024F0DBFE002211465748006824F0ACFE5E
:103740000022FF215448006824F0FBFF002017F0FE
:103750003CFC0022014600904F48006824F0E1FF45
:10376000002211464C48006825F007F84A48082511
:103770000026046832462946204625F05BF832468A
:103780002946204625F062F800BF00221146424833
:10379000006825F07FF810213F48006820F07FFC8A
:1037A0003D4800681EF094F83C4908603CA13B4845
:1037B00000681FF0B5F84FF47F4017F006FC0022B8
:1037C000014600903548006825F088F800231A4625
:1037D0000721324800681FF096FF2F4800681EF04E
:1037E00077F83049086030A12E4800681FF098F83B
:1037F0002E4817F0EAFB0022014600902948006895
:1038000025F06CF8002319220721264800681FF0D4
:103810007AFF214800681EF05BF82549086025A161
:10382000234800681FF07CF80022244920480068E3
:1038300025F064F86FF07F4017F0C7FB00220146C7
:1038400000901B48006825F049F800231A4609211A
:10385000174800681FF057FF0F4800681EF038F83F
:103860001749086017A1164800681FF059F86FF053
:103870007F4017F0AAFB0022014600901048006824
:1038800025F02CF800231A4608210D4800681FF087
:103890003AFF00BF3CE70000480200206002002021
:1038A000EF87AB0054020020EF84A40000CCFF009F
:1038B0006402002031323A303000000038940308AE
:1038C0004C020020EF9F820010B531F029FD10BDA1
:1038D00010B51348006840F001001149086008461F
:1038E0004068104908400E494860084600680E4983
:1038F00008400B4908600846006820F480200860F2
:103900000846406820F4FE0048604FF41F008860BD
:10391000FFF772FE4FF000600449086010BD000020
:10392000001002400000FFF8FFFFF6FE08ED00E087
:1039300010B540F22551294800F0BCF800B910BD7F
:10394000264800F073F9C4B2242C04D10020244985
:10395000087024490870224800787F280BDA204834
:1039600001780078401C1E4A10701E484454002004
:103970001C49127888540A2C2DD106221AA1194804
:10398000FCF7F1FC50B916480278521C154918484A
:10399000FCF771FC01201749087019E0062216A1F6
:1039A0001048FCF7E0FC50B90D480278521C0D4954
:1039B0001348FCF760FC01201249087008E0062259
:1039C00011A10848FCF7CFFC10B90120104908707C
:1039D00000200349087000BFB1E700000044004028
:1039E000360200202CBD002024474E524D430000DB
:1039F000ACBD00203702002024474E47474100005D
:103A00002CBE00203802002024474E474C4C0000BA
:103A10003902002010B540F225510F4800F04AF855
:103A2000C8B10D4800F002F9C4B20C48008840F259
:103A3000FF31884209DA09490888411C074A118088
:103A400007490C5400201288885440F2255102483E
:103A500000F008F800BF10BD004800403C02002004
:103A6000C8BE002010B50022002340F66A14A1420F
:103A700000D100BF0A1201249440A3B2DC430480A9
:103A800010BD21B1828942F40052828104E0828912
:103A90004DF6FF731A408281704702460020B1F54F
:103AA000007F00D100BF13880B400BB1012000E064
:103AB0000020704770B50246002400230025002036
:103AC00040F66A16B14200D100BFC1F3421501F0C1
:103AD0001F03012606FA03F3012D02D19689334014
:103AE00006E0022D02D1168A334001E0968A334067
:103AF0000C12012606FA04F41688344013B10CB1F6
:103B0000012000E0002070BDF0B50346002400262F
:103B10000025002040F66A17B94200D100BF1846C0
:103B2000C1F3421401F01F06012707FA06F5012C24
:103B300001D10C3004E0022C01D1103000E014302F
:103B40001AB107682F43076002E00768AF430760B8
:103B5000F0BD00002DE9F04786B005460E46002472
:103B6000A24600BFA1460027B08900B100BF2F4682
:103B70002C8A4CF6FF700440F08804432C82AC89F8
:103B80004EF6F3100440B088318908437189084328
:103B90000443AC81AC8A4FF6FF400440B089044333
:103BA000AC8201A8FEF754FD1F48874202D1DDF820
:103BB00010A001E0DDF80CA0A88900F4004040B19D
:103BC0000AEBCA0000EB0A1031684900B0FBF1F8BB
:103BD00007E00AEBCA0000EB0A1031688900B0FB6D
:103BE000F1F86420B8FBF0F004012009642101FB26
:103BF0001089A88900F4004040B1322000EBC900D0
:103C0000B0FBF1F000F00700044308E0322000EBC5
:103C100009106421B0FBF1F000F00F0004432C8187
:103C200006B0BDE8F08700000038014001468888F2
:103C3000C0F308007047C1F308028280704700BFDC
:103C4000FEE710B50024042000F0ACF8044620463E
:103C500010BD10B541F6066000F032FA10BD00004C
:103C600010B5002480211448FDF718FF1420FDF73B
:103C70005BFC10211048FDF713FF4FF480510F48F3
:103C8000FDF70EFF80210C48FDF70AFF04E0601CE1
:103C9000C4B23220FDF77EFC40210748FDF7F5FE57
:103CA00008B9C82CF3DB1420FDF73EFCC82C01DB5F
:103CB000012010BD0020FCE700100140000C014075
:103CC00000B587B001211820FEF7B2FC4020ADF806
:103CD000040048208DF8070003208DF8060001A994
:103CE0002D48FDF747FE8020ADF8040010208DF828
:103CF000070001A92848FDF73DFE01218803FEF7D2
:103D000087FC4FF46040ADF8040003208DF80600F6
:103D100018208DF8070001A92048FDF72BFE4FF46D
:103D20008050ADF8040010208DF8070001A91B4851
:103D3000FDF720FE1020ADF804008DF8070001A962
:103D40001548FDF717FE0020ADF808004FF482700B
:103D5000ADF80A000020ADF80C000220ADF80E000E
:103D60000120ADF810004002ADF812003820ADF887
:103D700014000020ADF816000720ADF8180002A9C5
:103D80000748FFF707FC01210548FFF7E9FBFF2083
:103D9000FFF7CAFB07B000BD00100140000C014056
:103DA0000038004070B50546002400BF4021164889
:103DB000FDF76BFE0028F9D000F09AF810211248A8
:103DC000FDF76EFE4FF480511048FDF767FE0320AB
:103DD00000F083F8284600F080F8FF2000F07DF81E
:103DE00004464FF6FF7000EA0424FF2000F075F847
:103DF000204484B24FF480510448FDF751FE00F096
:103E000072F8204670BD000000100140000C014017
:103E100010B50021042000F075F90021042000F005
:103E200071F910BD70B588B0002604E000200DF8CF
:103E30000600701CC6B2202EF8DB0020FFF7B2FF90
:103E4000044644F0080444F004042146002000F035
:103E500059F900250EE0684600F050F850B905F118
:103E6000200085B20020FFF79DFF044604F0080003
:103E700000B902E0B5F5006FEDDB00BFB5F5006FEE
:103E800019DAFFF7E6FEC4B2002604E0E0B20DF84E
:103E90000600701CC6B2202EF8DB002506E068463E
:103EA00000F02CF810B905F1200085B240F60400AE
:103EB0008542F4DB01E000F0BFF80820FFF772FF55
:103EC00004460920FFF76EFF204484B21CB1FFF7BF
:103ED000C7FE00F0B1F808B070BD10B5044620462A
:103EE000FFF722FB10BD10B51020FFF771FB10BDCE
:103EF00010B52020FFF76CFB10BD000070B5054623
:103F000040210D48FDF7C1FD88B110210A48FDF799
:103F1000C5FD002404E0285DFFF7DFFF601CC4B28C
:103F2000202CF8DB10210448FDF7BAFD01E0012048
:103F300070BD0020FCE700000010014010B50849EA
:103F4000087800F065F8064C2379E278A17860786B
:103F500000F008F82146487900F037F810BD00005D
:103F6000300200202DE9F04706460F4690461D46D8
:103F70000024A14605B90AE0082D04DDA5F10800DA
:103F80004FFA80F903E0A5F109004FFA80F909F032
:103F90000F044FF6FF7000EA041408F00F00044409
:103FA0004FF6FF7000EA041407F00F0004444FF6C8
:103FB000FF7000EA041406F00F00204484B221468A
:103FC000022000F09FF8BDE8F08770B5054600209C
:103FD000FFF7E8FE044605F0010010B144F01004BC
:103FE00001E024F0200405F0020010B144F0800448
:103FF00001E024F080042146002000F083F870BD29
:1040000010B50446214641F6046000F065F810BD85
:1040100070B505460024C5F1FE0084B24FF6FF706E
:1040200000EA0424C5F1FE00204484B221460B209E
:1040300000F068F870BD000010B5002400BF4021FA
:104040001E48FDF722FD0028F9D0FF20FFF745FFAD
:1040500000240DE040F60401002000F053F8022097
:10406000FDF762FA2046611CCCB2642800DD05E051
:104070000020FFF797FEB0F5006FEBD100BF00BF47
:1040800040210E48FDF701FD0028F9D000240AE088
:104090004FF41841032000F035F82046611CCCB2E3
:1040A000642800DD05E00320FFF77CFEB0F5184F23
:1040B000EED100BF1420FDF737FA10BD001001400B
:1040C00070B504462146072000F01CF80620FFF7D3
:1040D00069FE0546284670BD70B504460D4621466A
:1040E000072000F00FF800BF40210548FDF7CDFC88
:1040F0000028F9D02946062000F004F870BD000021
:104100000010014070B505460C4600BF4021124822
:10411000FDF7BBFC0028F9D0FFF7EAFE10210E489E
:10412000FDF7BEFC4FF480510C48FDF7B7FC0220B0
:10413000FFF7D3FE2846FFF7D0FE2012FFF7CDFE93
:10414000E0B2FFF7CAFE4FF480510448FDF7A8FC27
:10415000FFF7C9FE70BD000000100140000C0140D7
:1041600010B54FF480610348FCF7ACF80020024919
:10417000088010BDC8BE00203C02002070B5044677
:104180000D4625A000F056FD4FF4FA6228A129A0A3
:1041900000F048FA20B128A000F04CFD012070BDCD
:1041A0002CA000F047FD4FF47A7221A130A000F05E
:1041B00039FA214631A000F03DFDFFF7D1FF36A0CE
:1041C00000F072FA204600F06FFA36A000F06CFAA8
:1041D000284600F069FA34A000F066FA43F6982108
:1041E00013A000F0ABFA40B100F09CF8064631464F
:1041F0002EA000F01FFD0220D1E732A000F01AFD32
:1042000034A000F017FD4FF47A7209A136A000F037
:1042100009FA0020C3E700003E3E205B312F345DE9
:1042200020415420636865636B2E2E2E0D0A00001A
:104230004F4B0000415400003E3E20455350383261
:104240003636206E6F20726573706F6E7365210D48
:104250000A0000003E3E205B322F345D2053746123
:1042600074696F6E206D6F64652E2E2E0D0A00002E
:1042700041542B43574D4F44453D31003E3E205B5A
:10428000332F345D20436F6E6E656374696E673AD9
:104290002025730D0A00000041542B43574A41501A
:1042A0003D220000222C2200220D0A003E3E204327
:1042B0006F6E6E656374206661696C65643A202573
:1042C000730D0A003E3E20436F6E6E656374656435
:1042D000210D0A003E3E205B342F345D20415445C1
:1042E000302E2E2E0D0A00004154453000000000F3
:1042F00010B54FF47A7204A106A000F093F908B942
:10430000002010BD0120FCE75354415455533A326C
:104310000000000041542B4349505354415455531D
:104320000000000000487047C8BE00202DE9FF4F84
:1043300083B016461F4641F288324FA14FA000F0CD
:1043400071F930B158A000F075FC012007B0BDE84C
:10435000F08F5BA000F06EFC0FF2701963A002906A
:10436000654801904846FBF7E0FF83460398FBF75A
:10437000DCFF83440298FBF7D8FF83440498FBF7E3
:10438000D4FF83440198FBF7D0FF58441FFA80FA0A
:10439000FFF7E6FE59A000F087F9504600F09AF9C1
:1043A00059A000F081F94FF4FA6158A000F0C6F965
:1043B00020B157A000F03EFC0120C7E75BA000F051
:1043C00039FCFFF7CDFE484600F06EF9039800F087
:1043D0006BF9029800F068F9049800F065F901980B
:1043E00000F062F940F6B83158A000F0A7F920B10A
:1043F00058A000F01FFC0120A8E74FF4FA515BA081
:1044000000F09CF910B15BA000F014FCC82030F063
:10441000FBFC63A16448FBF760FF8046B8F1000F26
:1044200008D162A000F006FC5F4967A000F002FC22
:1044300002208BE77B214046FBF76DFF054625B93F
:1044400066A000F0F7FB022080E72846FBF76DFF2F
:104450000446BC4203D37C1E67A000F0EBFB22465F
:1044600029463046FBF74BFF00203055214668A017
:1044700000F0E0FB002069E74F4B000041542B4364
:10448000495053544152543D22544350222C2261EE
:1044900070692E73656E6976657273652E636F6DD4
:1044A000222C3830000000003E3E20544350206350
:1044B0006F6E6E656374206661696C65640D0A00D9
:1044C0003E3E20544350204F4B0D0A004745542098
:1044D0002F76332F776561746865722F6E6F772E34
:1044E0006A736F6E3F6B65793D000000266C6F63E9
:1044F0006174696F6E3D00009C86060841542B4331
:10450000495053454E443D000D0A00003E00000056
:104510003E3E2043495053454E442070726F6D70AB
:10452000742074696D656F75740D0A003E3E2053EA
:10453000656E64696E6720485454502072657175C9
:104540006573742E2E2E0D0A0000000053454E4454
:10455000204F4B003E3E2053454E44204F4B20748D
:10456000696D656F75740D0A00000000434C4F5370
:10457000454400003E3E205761697420434C4F5330
:1045800045442074696D656F757420286461746199
:10459000206D6179206265206F6B290D0A00000093
:1045A0002B4950442C000000C8BE00203E3E204E47
:1045B0006F202B49504420696E20726573706F6EB6
:1045C00073650D0A000000003E3E205261773A20DC
:1045D000252E323030730D0A000000003E3E204E82
:1045E0006F204A534F4E20696E20726573706F6E54
:1045F00073650D0A000000003E3E204A534F4E20D6
:104600007472756E6361746564210D0A00000000A8
:104610003E3E204A534F4E204F4B206C656E3D2549
:10462000640D0A002DE9F04706460F461446FFF7D1
:1046300097FD304600F038F817A000F035F8002557
:1046400025E030F06BFB39461448FBF746FE08B115
:10465000012000E00020804611A11048FBF73DFE3C
:1046600008B1012000E00020814630F069FBB8F17C
:10467000000F02D00020BDE8F087B9F1000F01D093
:104680000120F8E70A20FCF74FFF0A3500BFA542DA
:10469000D7D30220EFE700000D0A0000C8BE0020BB
:1046A0004552524F5200000070B505462C460BE0B3
:1046B00000BF80210648FFF7F0F90028F9D02178E3
:1046C0000348FFF7B8FA641C20780028F0D170BDC9
:1046D000004800407CB5044600251CB915A0FFF732
:1046E000E3FF7CBD0FE00A2094FBF0F100FB1140DA
:1046F0003030C2B22846691CCDB20DF800200A2025
:1047000094FBF0F084B2002CEDDC0BE000BF8021C4
:104710000948FFF7C2F90028F9D01DF8051006482E
:10472000FFF789FA281EA5F10101CDB2EED100BF35
:10473000D7E7000030000000004800402DE9F041BC
:1047400004460D46002623E030F0E8FA21461248E0
:10475000FBF7C3FD08B1012000E0002007460FA1D0
:104760000D48FBF7BAFD08B1012000E000208046AB
:1047700030F0E6FA17B10020BDE8F081B8F1000F83
:1047800001D00120F8E70A20FCF7CEFE0A3600BF70
:10479000AE42D9D30220EFE7C8BE00204552524FA7
:1047A0005200000001B5002007E00C2100BF0A1EE6
:1047B000A1F10103D9B2FAD1401C00998842F4D387
:1047C00008BD00002DE9FC5F05460C460126684641
:1047D00000F0BEF8002865D0BDF90200FCF777F8BC
:1047E00083463248007800EB400004EBC00041688B
:1047F0005846FBF774FE8146BDF90000FCF767F8E8
:1048000083462A48007800EB400054F830105846A0
:10481000FBF765FE82464946FBF709FE80462348C2
:10482000007800EB400004EBC00081684046FBF7D5
:10483000FEFD0746FCF772F800B22880BDF90200C1
:10484000FCF745F883461948007800EB400004EB7C
:10485000C00001695846FBF742FE8146BDF90000E1
:10486000FCF735F883461148007800EB400004EB74
:10487000C000C1685846FBF732FE82464946FBF746
:10488000D6FD80460948007800EB400004EBC000EC
:1048900041694046FBF7CBFD0746FCF73FF800B205
:1048A000688000E000263046BDE8FC9FEC04002054
:1048B00008B501216020FDF7BBFE0120ADF8000026
:1048C0008DF8020010208DF8030069461A48FDF7A4
:1048D00051F80420ADF8000069461748FDF74AF882
:1048E0000820ADF8000001208DF8020048208DF866
:1048F000030069461048FDF73DF84FF40050ADF84D
:10490000000001208DF8020010208DF80300694698
:104910000A48FDF72FF84FF400510848FDF7BEF89C
:104920001020ADF8000048208DF8030069460248C9
:10493000FDF720F808BD00000018014000140140F8
:1049400010B50446204600F043F900F0C1F810BD50
:104950002DE9F0478CB00646002528216846FBF774
:10496000B1FC00BF0AA90BA800F09EF8BDF92C000D
:104970002DF81500BDF9281005A820F81510681CA1
:10498000C5B210214648FDF780F808B90A2DE9DBC9
:1049900010214348FDF779F810B100204149087013
:1049A0000A2D7BD1BDF90070B846BDF91490CA46F6
:1049B00001240EE03DF91400B84202DA3DF914700A
:1049C00005E03DF91400404501DD3DF91480601C0F
:1049D000C4B20A2CEEDB012412E005A830F9140061
:1049E000484503DA05A830F9149007E005A830F926
:1049F0001400504502DD05A830F914A0601CC4B2B3
:104A00000A2CEADBBDF90000BDF902100844BDF92B
:104A100004100844BDF906100844BDF90810084404
:104A2000BDF90A100844BDF90C100844BDF90E1078
:104A30000844BDF910100844BDF912100844C01B09
:104A4000A0EB0800C01000B23080BDF91410BDF911
:104A500016000144BDF918000144BDF91A000144D3
:104A6000BDF91C000144BDF91E000144BDF9200040
:104A70000144BDF922000144BDF924000144BDF9FF
:104A800026000844A0EB0900A0EB0A00C01000B209
:104A9000708001200CB0BDE8F087FFE70020F9E747
:104AA00000180140B80500202DE9F04104460D46EC
:104AB0009020FFF745FF06B20120FFF773FED020DC
:104AC000FFF73EFF07B226802F80BDE8F08100008F
:104AD00070B5002504211148FCF7E0FF01210F48C3
:104AE000FCF7DEFF002414E001210C48FCF7D6FFA0
:104AF00008210A48FCF7C9FF0646C4F10B0006FA74
:104B000000F0284385B201210448FCF7C9FF601C6E
:104B1000C4B20C2CE8DB284670BD00000018014030
:104B200010B500242748007820B1012811D00228B0
:104B30003FD12FE010212448FCF7A7FF20B9012026
:104B400020490870002403E000201E49087000245A
:104B500034E010211C48FCF798FFA0B91B480068FE
:104B6000401C1A49086008460068022806D900203F
:104B7000086002201349087001240AE0012011494D
:104B80000870002405E00020104908600D490870F5
:104B9000002413E010210C48FCF777FF20B9022015
:104BA00008490870012403E0002006490870002429
:104BB00004E0002003490870002400BF00BF204625
:104BC00010BD0000B905002000180140BC05002000
:104BD00070B5054604211648FCF760FF0121144812
:104BE000FCF75CFF00241FE0C4F1070045FA00F069
:104BF00000F0010020B104210D48FCF751FF03E053
:104C000004210B48FCF74AFF0520FFF7CBFD0121EB
:104C10000748FCF745FF0520FFF7C4FD01210448C4
:104C2000FCF73CFF601CC4B2082CDDDB70BD00004B
:104C3000001801400FB4054B10B503A9044A0298AF
:104C400002F0CEFC10BC5DF814FB0000254D0108FD
:104C5000E40500200FB41CB50246002007AC002973
:104C60000BD0491ECDE90021054B6A462146069826
:104C700002F0B6FC009A002111701CBC5DF814FB18
:104C80000F7D000800487047E805002001480068D3
:104C900070470000E805002002E008C8121F08C1A4
:104CA000002AFAD170477047002001E001C1121FAD
:104CB000002AFBD1704700000149086070470000DE
:104CC000E805002070B50446002508E02168481C6E
:104CD00020600878303805EB850100EB410521683C
:104CE000087800F061FC0028F0D1284670BD000073
:104CF0002DE9FF4F9FB09046DDE92D59309F2C9C48
:104D000022462B4620462946FBF76CFE10D14FF079
:104D1000FF32DF4B20462946FBF77CFE08D34FF0DD
:104D2000FF326FF4801320462946FBF75BFE0DD25D
:104D30002F988DE83002CDE903074246229BDDE93A
:104D40001F0100F095FA23B0BDE8F08F0022134652
:104D500020462946FBF746FE01D2012000E0002054
:104D60001E901E9808B185F0004507F4806008B9D0
:104D70004FF00609CDE91C4540F2FF711D9801EA8C
:104D80001050A0F2FF301B90C24BDDE91C10184000
:104D9000C14A1043CDE91C10DDE91C010022BF4BC4
:104DA000CDE90A01FBF7ACFCBD4ABE4BCDE90C01D5
:104DB000FBF7ACFCCDE910011B98FBF791FDBA4A5B
:104DC000BA4BCDE90A01FBF7A1FCB94AB94BCDE9D1
:104DD0000C01FBF7F4FBCDE90E01DDE91023FBF735
:104DE000EEFBCDE91201FBF7B2FD06463046FBF7BC
:104DF00077FDB14AB14BCDE90E01FBF787FC0022EC
:104E0000AF4BCDE91001FBF7DAFBCDE91201FBF75F
:104E10009EFD1B901B98FBF763FDAA4AAA4BCDE9A8
:104E20000E01FBF773FCCDE912013046FBF758FD8C
:104E3000A64AA74BCDE90E01FBF768FCCDE91001AE
:104E4000DDE91223FBF75CFC82468B4652465B464B
:104E500050465946FBF75AFCCDE918011B9800F261
:104E6000FF3000050021CDE91C100022994BDDE93F
:104E70001801FBF7BDFC0022974BCDE90001FBF7C1
:104E80009EFB02460B46CDE90201DDE91801FBF766
:104E9000AFFC0022914BCDE90401FBF790FB0246E9
:104EA0000B46CDE90601DDE91801FBF7A1FC5246EE
:104EB0005B46CDE90A0100204FF08041FBF720FC62
:104EC000CDE90801DDE90A23FBF779FB52465B4691
:104ED000CDE90E0100204FF08041FBF717FCCDE932
:104EE0000C01DDE90E23FBF783FC00226A4BCDE9C0
:104EF0001001FBF764FBCDE91201DDE91C01CDE9EE
:104F00001001DDE91223FBF701FCCDE91C01DDE90D
:104F10001C0102460B46CDE9120120462946FBF74B
:104F200061FD0AD2761EDDE91C0100226A4BCDE943
:104F30001201FBF75DFCCDE91C01642E04DA16F1C9
:104F4000640F01DD042000E00520179007F40060E5
:104F500020B3634A634B20462946FBF75BFD15D817
:104F60000022614B20462946FBF73CFD0ED2B1459D
:104F700004DDA9EB0600A0F1010901E04FF00009F2
:104F800047F4806700201790002607E0B9F1000F72
:104F900004D007F4806008B1A9F101092F98169098
:104FA00017992F98884204D9DDE91601401A169006
:104FB00001E00020169007F0020018B1179808B120
:104FC000002016905EB1DDE91C0102460B46CDE9DA
:104FD000120120462946FBF70BFC04460D46CDF88E
:104FE00054801E9818B1204685F0004101E020460B
:104FF0002946CDE9120127F400601699CDE9029106
:105000000490DDE91201CDE900014246229BDDE971
:105010001F0100F02DF980461798B8B3424608F1F9
:10502000010807F0200109B1452100E0652108468B
:10503000DDE91FC1229BE04705211798401E002291
:105040000A23CDE90232CDE90401F00F002E01DA86
:10505000714200E03146CDE900104246229BDDE975
:105060001F0102F0E4F9804607F0020070B107E08A
:10507000424608F101082020DDE91FC1229BE047DC
:105080001598A8EB00012F988142F1D340465AE6CB
:10509000FFFFEF7FFFFF0F000000F03F0000F83F31
:1050A00061436F63A787D23FFB799F501344D33F7F
:1050B000B3C8608B288AC63F71A379094F930A4011
:1050C0000000E03FEF39FAFE422EE63F1655B5BB31
:1050D000B16B024000002C4000002440000018404A
:1050E0002D431CEBE2361A3F80842E412DE9FF5FF1
:1050F00082B00021DDE90430020DDDF840B0034349
:1051000018D044F61050A2F2FF3242431514119801
:1051100001281FD0A5EB0B00401C5FEA000A4FF0EE
:1051200000064E4FDFF83891B046504615D5CAF10B
:10513000000413E0119801244AA3012801D16FEA69
:105140000B010298119AC0E90031C0E9024206B091
:10515000BDE8F09FCBF10000DFE704460021404AA4
:10516000491842EB0450CDE9001012E0E00707D0E7
:1051700032463B4640464946FBF7C8FA80468946D8
:1051800032463B4610461946FBF7C0FA06460F4624
:105190006410002CEAD1DDE90401DDE90023BAF155
:1051A000000F06DAFBF7B2FA42464B46FBF7AEFABF
:1051B00005E0FBF71DFB42464B46FBF719FB044697
:1051C0000E460022284BFBF725FC03D84FF0FF309A
:1051D000014607E00022254B20463146FBF7EFF958
:1051E000FBF7D2FD102409E0002C0ADB0A22002381
:1051F000FBF710F8039B30321A55641E50EA010287
:10520000F2D1641C039AC4F111031444119A012AC7
:1052100003D0012208430DD10AE0084304D0002046
:105220004FF0110B119072E7A3EB0B056D1E0DE013
:105230005B4504DD4FF0000205F1010504E003DAEF
:105240004FF00002A5F10105002AECD00298119957
:10525000C0E90231C0E9004579E7000000001440D0
:105260000000F03F300000000000F0430000E03F8D
:105270002DE9FF4F95B0DDE924A8DDE92267269DE1
:10528000002400BF32463B4630463946FBF7AAFBB6
:105290000CD00320B9A1CDE90285CDE9001015A8F5
:1052A0000FC802F063F919B0BDE8F08F4FF0FF327C
:1052B0006FF4801330463946FBF794FB0AD2042082
:1052C000AFA1CDE90285CDE9001015A80FC802F005
:1052D0004DF9E8E74FF0FF32AB4B30463946FBF76C
:1052E00099FB13D205F0040008B1042100E003216A
:1052F00005F0040008B1A5A000E0A6A08DE8030118
:10530000039515A80FC802F031F9CCE70022A24B93
:1053100030463946FBF77EFB06D300229F4B3046D2
:105320003946FBF75FFB08D28DE8C004CDE9038561
:1053300015A80FC8FFF7DCFCB5E700200990002294
:10534000134630463946FBF74DFB09D20120099040
:1053500032463B4600200146FBF7D2F906460F468F
:1053600005F4806008B94FF0060A06E030222046B6
:10537000641C0CA90A54AAF1010A202C02D2BAF129
:10538000090FF3D830463946FBF7E1FA8346584611
:10539000FBF7A6FA32463B46CDE90201FBF7B3F92B
:1053A000CDE904017E4800EBCA0003C8CDE9020143
:1053B000DDE90423FBF7AAF9CDE90601DDE90601E1
:1053C000FBF7E4FA81464846FBF79BFACDE9040176
:1053D000DDE90623FBF797F9CDE90A010022714BBD
:1053E000DDE90A01FBF716FB18D209F1010948466D
:1053F000FBF787FACDE90401694800EBCA0103C94C
:1054000002460B46CDE90201DDE90401FBF702FB90
:1054100013D84FF000090BF1010B0EE00022614B95
:10542000DDE90A01FBF7DEFA07D3B9F1000F02D07C
:1054300009F0010008B109F10109BAF1000F1ED10C
:105440005846FBF74DFA32463B46CDE90401FBF7DF
:105450005AF9CDE90A010022524BDDE90A01FBF7B6
:10546000C1FA06D200224F4BDDE90A01FBF7D2FA5E
:1054700030D20BF0010068B30BF1010B2AE050466B
:1054800011E0401E0A21B9FBF1F201FB129130310B
:105490002246641C0CAB99540A21B9FBF1F1B1F11D
:1054A000000900D101E0202CEBD300BF04E0302341
:1054B0002146641C0CAA5354202C03D2011EA0F1D7
:1054C0000100F4D1202C04D22E232246641C0CA906
:1054D0008B5400BF11E00A209BFBF0F100FB11B0E0
:1054E0003030C2B22046641C0CA90A540A209BFB2F
:1054F000F0F0B0F1000B00D101E0202CEBD300BFA5
:1055000005F00200B0B905F0010098B1B8F1000F44
:1055100006D0099810B905F00C0008B1A8F10108EF
:1055200004E030222046641C0CA90A54444501D2F0
:10553000202CF6D3202C18D2099828B12D222046F1
:10554000641C0CA90A5410E005F0040028B12B22B9
:105550002046641C0CA90A5407E005F0080020B19D
:1055600020222046641C0CA90A540CA88DE81101C5
:10557000039515A80FC801F0F9FF94E66E616E005F
:10558000666E692D00000000FFFFEF7F666E692BDD
:1055900000000000666E690065CDCD4165CDCDC1CE
:1055A000889603080000E03F0146302903DB3929D3
:1055B00001DC012070470020FCE730380A2801D2C6
:1055C000012070470020704710B54421074801F0C2
:1055D0004EF900221021064826F032F805490860ED
:1055E00003F048F800200449087010BD800700202F
:1055F00055870008E0000020DC0000202DE9F04F76
:1056000087B007460C4615462946204600F066F945
:1056100020B94FF0FF3007B0BDE8F08F00222946D7
:10562000204600F0FDF808B10020F4E700262046EF
:1056300014F05CF9401E00B20490204614F0CEF83D
:10564000401E00B2039068886188401A0FFA80FA01
:10565000BAF1000F16DD2088ADF814006088ADF8AF
:105660001600A088ADF818006088504400B2ADF86C
:105670001A003046711C4EB207EBC000059901605C
:1056800006994160E8886188411A0398401A0FFA28
:1056900080FBBBF1000F1CDDB5F90600B4F9061064
:1056A000884216DA2088ADF81400E888ADF81600B4
:1056B000A088ADF81800E888584400B2ADF81A0088
:1056C0003046711C4EB207EBC00005990160069987
:1056D0004160B5F90200B4F90210884202DDB5F963
:1056E000020001E0B4F902008046B5F90600B4F901
:1056F0000610884202DAB5F9060001E0B4F90600A6
:1057000002900298A0EB08000FFA80F928882188FF
:10571000401A00B20190019800281BDDB9F1000F7A
:1057200018DD2088ADF81400ADF8168021880198A6
:10573000084400B2ADF8180008EB090000B2ADF85B
:105740001A003046711C4EB207EBC000059901608B
:1057500006994160A8882188411A0498401A00B22D
:1057600000900098002818DDA888ADF81400ADF866
:105770001680A9880098084400B2ADF8180008EB1C
:10578000090000B2ADF81A003046711C4EB207EBAA
:10579000C000059901600699416030463BE730B58D
:1057A0000346B1F90040B2F90050AC4202DDB1F954
:1057B000004001E0B2F900401C80B1F90240B2F9AA
:1057C0000250AC4202DDB1F9024001E0B2F9024000
:1057D0005C80B1F90440B2F90450AC4202DAB1F98C
:1057E000044001E0B2F904409C80B1F90640B2F9EE
:1057F0000650AC4202DAB1F9064001E0B2F90640C7
:10580000DC800120B3F90040B3F90450AC4205DC60
:10581000B3F90240B3F90650AC4200DD002030BDC0
:10582000F8B504460D4616460027B4F90000B5F950
:105830000010884212DBB4F90200B5F90210884268
:105840000CDBB4F90400B5F90410884206DCB4F9A5
:105850000600B5F90610884200DC01270FB90020C8
:10586000F8BD0EB90120FBE72088ADF80000608884
:10587000ADF8020032466946284600F0A7F808B99C
:105880000020EDE7A088ADF800006088ADF80200C8
:1058900032466946284600F099F808B90020DFE74B
:1058A0002088ADF80000E088ADF802003246694675
:1058B000284600F08BF808B90020D1E7A088ADF8A1
:1058C0000000E088ADF8020032466946284600F044
:1058D0007DF808B90020C3E70120C1E70246B2F90C
:1058E0000000B1F90430984213DCB2F90400B1F9B8
:1058F000003098420DDBB2F90200B1F9063098424F
:1059000007DCB2F90600B1F90230984201DB012050
:1059100070470020FCE7F8B504460D461646B4F97A
:105920000400B5F90010884211DBB4F90600B5F99E
:10593000021088420BDBB4F90000B5F9041088426C
:1059400005DCB4F90200B5F90610884201DD01203A
:10595000F8BD0EB90020FBE72088ADF80000608894
:10596000ADF8020032466946284600F02FF808B12B
:105970000020EDE7A088ADF800006088ADF80200D7
:1059800032466946284600F021F808B10020DFE7DA
:105990002088ADF80000E088ADF802003246694684
:1059A000284600F013F808B10020D1E7A088ADF830
:1059B0000000E088ADF8020032466946284600F053
:1059C00005F808B10020C3E70120C1E72DE9FC5F1D
:1059D00005460E4614464FF0000AB6F90000B5F928
:1059E0000010884213DBB6F90000B5F904108842B4
:1059F0000DDCB6F90200B5F90210884207DBB6F9F2
:105A00000200B5F90610884201DC4FF0010ABAF134
:105A1000000F02D10020BDE8FC9F002C01DC01201A
:105A2000F9E7284613F062FF834600EBDB7047106E
:105A3000284613F0D3FE834600EBDB704FEA600884
:105A4000474501DA384600E0404681464C4500DDD6
:105A50004C462888ADF800002888204400B2ADF8F4
:105A600004006888ADF802006888204400B2ADF8F0
:105A70000600002231466846FFF7A8FF80B1BDF856
:105A80000400204400B2ADF80400BDF80600204434
:105A900000B2ADF806003146684623F051F9BAE786
:105AA000E888001B00B2ADF80200E888ADF80600F7
:105AB000002231466846FFF789FF80B1BDF8040037
:105AC000204400B2ADF80400BDF80200001B00B293
:105AD000ADF802003146684623F032F99BE7A8880A
